:100000000C9490000C94B8000C94B8000C94B800B8
:100010000C94B8000C94B8000C94B8000C94B80080
:100020000C94B8000C94B8000C94B8000C94B80070
:100030000C94B8000C94B8000C94B8000C94B80060
:100040000C943B0C0C94B8000C94AB0C0C94850CE9
:100050000C94B8000C94B8000C94B8000C94B80040
:100060000C94B8000C94B8004E414E494E49545976
:10007000494E46CDCCCC3D0AD7233C17B7D1387773
:10008000CC2B329595E6241FB14F0A000020410089
:1000900000C84200401C4620BCBE4CCA1B0E5AAED3
:1000A000C59D74005EBCE2613FDD83C29C7E20A3DF
:1000B000FD1F41009D23BE46DB65F88C11AF32CA9F
:1000C00057E9740000000800020100000304070063
:1000D0000000000000000000000000250028002BA8
:1000E0000000000000240027002A00000000002378
:1000F000002600290004040404040404040202028B
:100100000202020303030303030102040810204058
:100110008001020408102001020408102000DD0CF8
:1001200011241FBECFEFD8E0DEBFCDBF25E0A8E091
:10013000B5E001C01D92AE3FB207E1F715E0A0E0C7
:10014000B1E0E2E6FCE202C005900D92A830B107F2
:10015000D9F710E0C0E9D0E004C02197FE010E9469
:100160008B12CF38D107C9F70E94D00D0C942F16EF
:100170000C94000090E0FC01ED53FF4F2491FC0132
:10018000E75FFE4F3491FC01EB50FF4FE491EE230B
:10019000C9F0222339F0233001F1A8F4213019F1FC
:1001A000223029F1F0E0EE0FFF1FE952FF4FA59139
:1001B000B4918FB7F894EC91611126C030953E232D
:1001C0003C938FBF08952730A9F02830C9F0243020
:1001D00049F7809180008F7D03C0809180008F77E8
:1001E00080938000DFCF84B58F7784BDDBCF84B56B
:1001F0008F7DFBCF8091B0008F778093B000D2CFFE
:100200008091B0008F7DF9CF3E2BDACF8E3008F091
:100210008E508770806480937C0080917A00806427
:1002200080937A0080917A0086FDFCCF80917800DF
:100230009091790008953FB7F894809119059091B5
:100240001A05A0911B05B0911C0526B5A89B05C0F9
:100250002F3F19F00196A11DB11D3FBFBA2FA92F45
:10026000982F8827BC01CD01620F711D811D911D42
:1002700042E0660F771F881F991F4A95D1F70895AE
:100280002FB7F894609115057091160580911705A8
:10029000909118052FBF0895AF92BF92CF92DF9231
:1002A000EF92FF920F931F93CF93DF936C017B012B
:1002B0008B01040F151FEB015E01AE18BF08C017BC
:1002C000D10759F06991D601ED91FC910190F0812F
:1002D000E02DC6010995892B79F7C501DF91CF91F2
:1002E0001F910F91FF90EF90DF90CF90BF90AF9054
:1002F0000895FC01538D448D252F30E0842F90E02C
:10030000821B930B541710F0CF9608950197089510
:10031000FC01918D828D981761F0A28DAE0FBF2FD9
:10032000B11D5D968C91928D9F5F9F73928F90E02F
:1003300008958FEF9FEF0895FC01918D828D98179E
:1003400031F0828DE80FF11D858D90E008958FEFDB
:100350009FEF0895FC01918D228D892F90E0805CA4
:100360009F4F821B91098F73992708958DE195E026
:100370000E94AA0121E0892B09F420E0822F089530
:1003800080E090E0892B29F00E94B60181110C9445
:1003900000000895FC01A48DA80FB92FB11DA35A28
:1003A000BF4F2C91848D90E001968F739927848F95
:1003B000A689B7892C93A089B1898C9183708064B8
:1003C0008C93938D848D981306C00288F389E02D59
:1003D00080818F7D80830895EF92FF920F931F930A
:1003E000CF93DF93EC0181E0888F9B8D8C8D9813E8
:1003F0001AC0E889F989808185FF15C09FB7F894F4
:10040000EE89FF896083E889F9898081837080643F
:1004100080839FBF81E090E0DF91CF911F910F918A
:10042000FF90EF900895F62E0B8D10E00F5F1F4F99
:100430000F731127E02E8C8D8E110CC00FB607FCA8
:10044000FACFE889F989808185FFF5CFCE010E9436
:10045000CA01F1CFEB8DEC0FFD2FF11DE35AFF4FD9
:10046000F0829FB7F8940B8FEA89FB8980818062C4
:10047000CFCFCF93DF93EC01888D8823B9F0AA8981
:10048000BB89E889F9898C9185FD03C0808186FD4F
:100490000DC00FB607FCF7CF8C9185FFF2CF80819E
:1004A00085FFEDCFCE010E94CA01E9CFDF91CF9148
:1004B0000895DC0180E0615090F09D919827E92F2C
:1004C000EF70F0E0ED55FF4F2491E92FE295EF70CA
:1004D000F0E0ED54FF4FE491822F8E27ECCF08958A
:1004E000DC012C911196ED91FC91F8948181822B85
:1004F00081839281322F30959323928387E090E01D
:100500000197F1F781818323818383E290E0019752
:10051000F1F790817894EFECF0E03197F1F79223C6
:1005200081E009F480E00895FC0190810180F2816E
:10053000E02D292F209560FF14C0F894828182233A
:1005400082838181892B8183A3E2B0E01197F1F747
:100550008281982B9283789487ED90E00197F1F750
:100560000895F8948281822382838181892B8183FB
:10057000AFEFB0E01197F1F78281982B92837894D6
:100580008FE090E0EBCFDF92EF92FF920F931F93FB
:10059000CF93DF93EC01D62EE42E08E010E0FF2489
:1005A000F39461E08D2D8F2109F460E0CE010E946B
:1005B0009402FF0C01501109A1F7E11010C0F8944A
:1005C000E981FA8191818881809589238183E981FC
:1005D000FA81928188818095892382837894DF9142
:1005E000CF911F910F91FF90EF90DF900895EF92C0
:1005F000FF920F931F93CF93DF938C017B0140E019
:1006000065E50E94C302E70188E0E80EF11C6991EC
:1006100040E0C8010E94C302CE15DF05C1F7DF919B
:10062000CF911F910F91FF90EF900895FC01908161
:100630000180F281E02DF8948181292F2095822379
:10064000818378943DE743E050E0315029F1DA01AD
:100650001197F1F780818923C1F3F8948281822375
:1006600082838181892B81837894ABE7B7E01197EE
:10067000F1F7F894818182238183A3E1B1E011979E
:10068000F1F78081982381E009F080E07894E3E637
:10069000F6E03197F1F7089580E008954F925F9268
:1006A0006F927F928F929F92AF92BF92CF92DF9282
:1006B000EF92FF920F931F93CF93DF938C017B01F7
:1006C000EA01FC01818592850E9416038823D9F1F5
:1006D000B701F801818592850E94F70240E06EEB38
:1006E000F801818592850E94C3026E015E01F9E0E6
:1006F000AF0EB11C7E01F8018184928488E0682EDF
:10070000712C512C44244394C4010E947002811125
:100710005428440CF1E06F1A7108B1F7F7015192B7
:100720007F01AE16BF0639F7F801818592850E94D8
:100730001603813041F4F60181916F01811105C0EA
:10074000EE15FF05C1F790E008C068E0CE010E94F9
:10075000590291E028852813F6CF892FDF91CF9198
:100760001F910F91FF90EF90DF90CF90BF90AF90CF
:100770009F908F907F906F905F904F9008950E9410
:100780000601BC01990F880B990B0E94F21020E022
:1007900030EC4FE754E40E94FE1220E030E040EAE3
:1007A00050E40E94511120E030E04AE754E40E94F6
:1007B0005111089560E070E088EC91E408958F9203
:1007C0009F92AF92BF92CF92DF92EF92FF920F93E0
:1007D0001F93CF93DF93EC0120E030E84BEB54E420
:1007E0006B817C818D819E810E9491124B015C0105
:1007F00020E030E040E450E40E94FE126B017C01F6
:1008000020E030E84BEB54E46F81788589859A8548
:100810000E94911220E030E040E450E40E94FE1279
:100820009B01AC01C701B6010E9491129B01AC0172
:1008300060E070E080E490E40E94FE126B017C01B5
:10084000AC019B01C501B4010E94511120E030E0D0
:1008500040E450E40E94FE129B01AC0160E070E0B5
:1008600080EE90E40E9491124B015C0105E010E0E3
:100870008A810E94BF0301501109D1F78A810E9429
:10088000BF0320E030E84BEB54E40E949112A70133
:1008900096010E94511120E030E040E450E40E94B3
:1008A000FE12A50194010E949212DF91CF911F9137
:1008B0000F91FF90EF90DF90CF90BF90AF909F90FF
:1008C0008F90089508950895BF92CF92DF92EF928E
:1008D000FF920F931F93CF93DF93EC01B62EC72E99
:1008E0008D85811105C0CE010E94160381110EC0B5
:1008F0001B861D861C8680E0DF91CF911F910F9192
:10090000FF90EF90DF90CF90BF90089540E060EFB0
:10091000CE010E94C30201E0E12CD12C11E0CE01F6
:100920000E947002F82ECE010E94700291E0F9122E
:1009300018C0813099F51134D8F2DB86D11002C08D
:1009400081E08D878B81882399F22396EB2DFC2DF6
:10095000CF01089629912193E817F907D9F781E08B
:10096000CBCFEE2DF0E0F8120FC08B851817A0F456
:10097000DE01AE0FBF1F13968C91802379F4F12C0A
:10098000193008F41C87D12EEC0FFD1F8381902FA6
:100990009095892383830AC08113F1CFFE01EE0D68
:1009A000F11D8381802B8383FF24F3946F2DCE016F
:1009B0000E9494021F5F000F11F4E39401E087E0AE
:1009C0008E1508F0ACCFB7CF8F929F92AF92BF92A7
:1009D000CF92DF92EF92FF920F931F93CF93DF930B
:1009E000CDB7DEB761970FB6F894DEBF0FBECDBFAF
:1009F0008C01DC0159968D919C910E94160340E078
:100A00006CECF801818D928D0E94C302D801509642
:100A10004C91509764E459968D919C910E94C30229
:100A2000F8018489882311F1E389D80155968C91C6
:100A30005597882309F44BC050968C91811147C07B
:100A40000E9440016B017C01F801818D928D0E9412
:100A50007002813059F00E9440016C197D098E09A5
:100A60009F096E3E72408105910570F3D801599639
:100A7000ED91FC915A97138615861486128611867D
:100A8000108617821682158214821382BE01665F59
:100A90007F4F59968D919C910E94640481115FC093
:100AA0006AE979E984E493EC61960FB6F894DEBFC5
:100AB0000FBECDBFDF91CF911F910F91FF90EF90AF
:100AC000DF90CF90BF90AF909F908F900895E950A6
:100AD0008EEE92E0E33038F4F0E0EE0FFF1FE65FB9
:100AE000FE4F808191816C01990FEE08FF08D801BB
:100AF00051968C915197882329F060E052968C9101
:100B00000E94BA000E941B014B015C01C114D10478
:100B1000E104F104B9F00E941B01681979098A09FE
:100B20009B09683E73408105910580F3B1E0CB1AC3
:100B3000D108E108F108E8EE8E0EE3E09E1EA11C4C
:100B4000B11CE4CFD80151968C915197882309F4B8
:100B50008DCF61E052968C910E94BA0087CF67E0FA
:100B6000CE010A960E9459029989891399CFAE0144
:100B70004F5F5F4FBE01665F7F4FC80140960E9486
:100B80004E03882309F48CCF6A8170E0762F6627A4
:100B9000770F770F770F2981B8E02B9F90011124F1
:100BA000262B372B8A858031E1F468856623C9F0CE
:100BB00070E08F81FB01E81BF109CF019695982F1A
:100BC0008827979587950E946312CB018097B9017A
:100BD00053E0660F771F5A95E1F760789C01260F66
:100BE000371F2138F4EE3F070CF45ACFB901330F09
:100BF000880B990B0E94F21026E636E646E65CE387
:100C00000E94511120E030E040E052E40E94921234
:100C10004BCF4F925F926F927F928F929F92AF9243
:100C2000BF92CF92DF92EF92FF920F931F93CF93D9
:100C3000DF93EC0105E010E08A810E94060101507B
:100C40001109D1F78A810E94BF034B015C018B819E
:100C50009C81009709F474C00E94E4046B017C013C
:100C600020E030E04AE754E4C501B4010E9451118C
:100C700020E030E04DE454E40E94FE1220E030E039
:100C800048E453E40E94FE124B015C0120910001F4
:100C90003091010140910201509103010E945111D4
:100CA0002B013C0120E030E040E250E40E94701350
:100CB00018160CF04CC089859A85AB85BC8580934D
:100CC000000190930101A0930201B09303012091D0
:100CD0000001309101014091020150910301C501D1
:100CE000B4010E9451114B015C0120E030E048EC5E
:100CF00051E4C701B6010E94911220E53DE847E9A1
:100D00005CE30E94511120E030E040E85FE30E9484
:100D100092129B01AC01C501B4010E94FE12DF9149
:100D2000CF911F910F91FF90EF90DF90CF90BF90E8
:100D3000AF909F908F907F906F905F904F900895AD
:100D4000C12CD12C88ECE82E81E4F82E89CF20E04C
:100D500030E040E050E4C301B2010E94EB1087FF95
:100D6000B6CF8D819E81AF81B885A9CFFC0101905E
:100D70000020E9F73197AF01481B590BBC018DE109
:100D800095E00C944C01CF93DF930E94B606EC01E2
:100D900080E294E00E94B6068C0F9D1FDF91CF91F8
:100DA00008950C94B606CF93DF93D62FC72FDC019E
:100DB000ED91FC910280F381E02D60E009959F9315
:100DC0008F937F936F9388E391E09F938F93CF935B
:100DD000DF930E948E13ED2FFC2FDF010D9000207A
:100DE000E9F7CD0101972DB73EB7285F3F4F0FB60A
:100DF000F8943EBF0FBE2DBF8E1B9F0BDF91CF918E
:100E000008952F923F924F925F926F927F928F92AE
:100E10009F92AF92BF92CF92DF92EF92FF920F9389
:100E20001F93CF93DF93CDB7DEB7CA5ED1090FB65C
:100E3000F894DEBF0FBECDBF8DE195E00E94880122
:100E40008F32B9F57E0121E8E20EF11C80E4F70152
:100E500011928A95E9F70E9440014B015C0110E074
:100E600000E08DE195E00E94880197FD49C08D303A
:100E7000910509F451C08A30910509F44DC00F3332
:100E8000110589F51F928FE38F9384E491E09F937E
:100E90008F938E010F5F1F4F1F930F930E948E132E
:100EA000C8010E94D1060F900F900F900F900F90E5
:100EB0000F90C651DF4F0FB6F894DEBF0FBECDBF07
:100EC000DF91CF911F910F91FF90EF90DF90CF9026
:100ED000BF90AF909F908F907F906F905F904F905A
:100EE0003F902F9008956801FFEFCF1ADF0AF701B6
:100EF000E00FF11F80830E9440014B015C018601DD
:100F00000E944001681979098A099B09683E73406B
:100F10008105910508F4A5CFF701E00FF11F1082BC
:100F2000FF92EF9280E991E09F938F938E010F5F84
:100F30001F4F1F930F930E948E13C8010E94D1066A
:100F40008091ED049091EE04A091EF04B091F00433
:100F5000CF51DF4F88839983AA83BB83C15ED04082
:100F6000BE016F517F4FC7010E94460F6C010F9069
:100F70000F900F900F900F900F90009729F48FEA29
:100F800091E00E94C30695CF65EC71E00E947E134C
:100F9000892B29F48DE195E00E9439028ACF6BEC10
:100FA00071E0C6010E947E13892BB9F480ED91E0B7
:100FB0000E94D106BE016F517F4F90E080E00E94F9
:100FC000460F892B09F075CFC70106960E94D106FE
:100FD00080E294E00E94D1066CCF67ED71E0C6011B
:100FE0000E947E13892B09F06EC1BE016F517F4FA5
:100FF00090E080E00E94460F0097D1F460E08FEE11
:1010000095E00E94DF039F938F937F936F938AED08
:1010100091E09F938F931F930F930E948E13C801AB
:101020000E94D1060FB6F894DEBF0FBECDBF41CFF0
:1010300063EE71E00E947E13892B09F041C1BE016D
:101040006F517F4F90E080E00E94460F7C018DEE53
:1010500091E0E114F10409F494CF62E172E0C70178
:101060000E947E13892B09F0CAC068E172E0C801B2
:101070000E948713C8010E94D1067090F20560900B
:10108000F3055090F4054090F505B090F605A0905A
:10109000F7059090F8058090F90525E0E22EF12CF7
:1010A0008091F1050E94BF0391E0E91AF108C1F7B0
:1010B0008091F1050E94BF036B017C0120E030E4C8
:1010C00045EA54E40E94701318160CF04EC020E05C
:1010D00030EC41ED54E4C701B6010E94EB1087FFEC
:1010E00044C0C092F205D092F305E092F405F0926C
:1010F000F505F090F205E090F305D090F405C0906E
:10110000F505B301C201272F362D492F542DD701E4
:10111000F6016B2F7A2F8F2F9E2F0E94EB108823C2
:1011200009F441C0CF92DF92EF92FF924F925F920B
:101130006F927F928EE292E09F938F931F930F9313
:101140000E948E13C8010E94D1060FB6F894DEBF2C
:101150000FBECDBF69EA72E0CE018F539F4F0E9450
:101160008713CE018F539F4F35CF20E030EC47EEF1
:1011700054E4C701B6010E94701318160CF0B9CFE1
:1011800020E030E24AE055E4C701B6010E94EB10CE
:1011900087FFAFCFC092F605D092F705E092F80531
:1011A000F092F905A6CFF090F605E090F705D09003
:1011B000F805C090F905B501C401272F3A2D492F34
:1011C000582DD701F6016B2F7A2F8F2F9E2F0E945B
:1011D000EB10882359F0CF92DF92EF92FF928F921B
:1011E0009F92AF92BF928BE592E0A6CF65E872E046
:1011F000C8010E948713C8010E94D106ABCF6DEBD6
:1012000072E0C7010E947E13892B09F58091F905D0
:101210008F938091F8058F938091F7058F9380913C
:10122000F6058F938091F5058F938091F4058F9348
:101230008091F3058F938091F2058F9381EC92E07A
:101240009F938F931F930F930E948E13E8CE62EEAD
:1012500072E0C7010E947E13892B09F090CEBE0177
:101260006F517F4F90E080E00E94460F009719F485
:1012700086EE92E086CE0E94240F6B017C01BE01B7
:101280006F517F4F90E080E00E94460F009719F465
:1012900087E193E076CE0E94240FC092F205D092AF
:1012A000F305E092F405F092F5056093F60570936E
:1012B000F7058093F8059093F90585E493E061CEF6
:1012C0008FEA91E087CE61E673E0C6010E947E134B
:1012D000892B09F06DC2BE016F517F4F90E080E015
:1012E0000E94460F009761F460E082EE95E00E9454
:1012F00009069F938F937F936F9384E693E089CE43
:1013000063EE71E00E947E13892B09F0D2CDBE01FD
:101310006F517F4F90E080E00E94460F7C018FE686
:1013200093E0E114F10409F42CCE62E172E0C7010C
:101330000E947E13892B09F0C0C166E973E0C801E1
:101340000E948713C8010E94D1069091E705CB51F6
:10135000DF4F9883C55ED040E091E805CA51DF4F6A
:10136000E883C65ED0407090E9056090EA05F09190
:10137000EB05C951DF4FF883C75ED0402091EC05E3
:10138000C851DF4F2883C85ED0408091ED05C7511A
:10139000DF4F8883C95ED0409091EE05C651DF4F84
:1013A0009883CA5ED04095E0E92EF12C8091E40547
:1013B0000E940601E1E0EE1AF108C1F78091E40510
:1013C0000E94BF031B012C018091E5059091E60569
:1013D000009709F4D0C00E94E4044B015C0120E0B6
:1013E00030E04AE754E4C201B1010E94511120E00B
:1013F00030E04DE454E40E94FE1220E030E048E486
:1014000053E40E94FE126B017C0126E636E646E6B6
:101410005FE30E94701318160CF0B4C023E333E3AB
:1014200043EF5FE3C701B6010E94EB1087FFAAC03C
:1014300020E030E048EC51E4C501B4010E94911273
:1014400020E53DE847E95CE30E94511120E030E0EF
:1014500040E85FE30E9492122FE23DED44EB5FE330
:101460000E94511120E038E240E258E40E945111FC
:1014700020E030E04AE754E40E94FE12A20191010C
:101480000E94FE124B015C0120E030E040E05FE38F
:101490000E94701318163CF520E030E040EC5FE34A
:1014A000C501B4010E94EB1087FF1DC026E636E699
:1014B00046E65FE3C701B6010E94701318160CF0F0
:1014C0008FC023E333E343EF5FE3C701B6010E941C
:1014D000EB1087FF85C08092E7059092E805A09207
:1014E000E905B092EA05F090E705E090E805D090B4
:1014F000E905C090EA05CB51DF4F7881C55ED04049
:10150000CA51DF4F6881C65ED040C301272F362FF6
:10151000492F562DD701F6016B2F7A2F8F2F9E2F33
:101520000E94EB10882309F479C0CF92DF92EF92EA
:10153000FF926F927F92CA51DF4FF881C65ED04012
:10154000FF93CB51DF4F2881C55ED0402F938CEAAB
:1015500093E09F938F931F930F930E948E130FB668
:10156000F894DEBF0FBECDBF63E274E0C8010E94F5
:101570008713C8012FCD812C912C88ECA82E81E4F3
:10158000B82E2DCF20E030E040E151E4C701B60194
:101590000E94701318160CF0A6CF26E636E646E831
:1015A00051E4C701B6010E94EB1087FF9CCF20E0F9
:1015B00030E048EC51E4C501B4010E94911220E5ED
:1015C0003DE847E95CE30E94511120E030E040E84B
:1015D0005FE30E9492122BE734E14EE451E440CFE6
:1015E00020E030E040E151E4C701B6010E947013F1
:1015F00018160CF078CF26E636E646E851E4C70127
:10160000B6010E94EB1087FF6ECF8092EB0590929F
:10161000EC05A092ED05B092EE0565CFF090EB05DC
:10162000E090EC05D090ED05C090EE05C951DF4F7C
:101630007881C75ED040C851DF4F6881C85ED04016
:10164000C751DF4F9881C95ED040C651DF4F8881B6
:10165000CA5ED040272F362F492F582FD701F601C9
:101660006B2F7A2F8F2F9E2F0E94EB108823F9F07B
:10167000CF92DF92EF92FF92C651DF4F9881CA5E00
:10168000D0409F93C751DF4FE881C95ED040EF93B0
:10169000C851DF4FF881C85ED040FF93C951DF4F7A
:1016A0002881C75ED0402F9385ED93E052CF6FEF36
:1016B00073E0C8010E94871357CF6DEB72E0C7013A
:1016C0000E947E13892BD9F48091EE058F9380912F
:1016D000ED058F938091EC058F938091EB058F93AF
:1016E0008091EA058F938091E9058F938091E805B9
:1016F0008F938091E7058F9389E394E0A1CD62EE0B
:1017000072E0C7010E947E13892B09F0D2CBBE0183
:101710006F517F4F90E080E00E94460F009719F4D0
:101720008AE594E02ECC0E94280FBC01990F880B0B
:10173000990B0E94F2105B016C01BE016F517F4F4B
:1017400090E080E00E94460F009719F48AE894E048
:1017500018CC0E94280FBC01990F880B990B0E948E
:10176000F2107B018C013B014C019B01AC01B501E6
:10177000C6010E947013181624F4750186015301E6
:101780006401C501D6018093E7059093E805A09315
:10179000E905B093EA05C701D8018093EB05909362
:1017A000EC05A093ED05B093EE0589EB94E0E9CB51
:1017B00085ED94E00FCCEF92FF920F931F93CF93A0
:1017C000DF93CDB7DEB7A0970FB6F894DEBF0FBE9C
:1017D000CDBF9E012F5F3F4F790120E2F7011192AB
:1017E0002A95E9F7FC0130E020E0DF0140813196E5
:1017F0004D3021F04A3011F0403269F5A9014F5FB8
:101800005F4F2617370728F18901A801421B530BA8
:101810004132510510F040E250E0BD01C7010E9485
:1018200075130F3F1F4F39F061EF74E0C7010E943D
:101830007E13892BF9F080E0A0960FB6F894DEBFF6
:101840000FBECDBFDF91CF911F910F91FF90EF9011
:1018500008959A01CACFFC01E20FF31F8901061710
:10186000170798F68191A8014F5F5F4F882369F2AF
:101870008A01F5CFE1CF1F920F920FB60F9211247C
:101880002F933F938F939F93AF93BF9380911505B1
:1018900090911605A0911705B09118053091140587
:1018A00023E0230F2D3758F50196A11DB11D20937C
:1018B00014058093150590931605A0931705B09312
:1018C00018058091190590911A05A0911B05B091FA
:1018D0001C050196A11DB11D8093190590931A0551
:1018E000A0931B05B0931C05BF91AF919F918F9161
:1018F0003F912F910F900FBE0F901F90189526E8E3
:10190000230F0296A11DB11DD2CF1F920F920FB6C9
:101910000F9211242F933F934F935F936F937F9375
:101920008F939F93AF93BF93EF93FF938DE195E0D8
:101930000E94CA01FF91EF91BF91AF919F918F914A
:101940007F916F915F914F913F912F910F900FBEBB
:101950000F901F9018951F920F920FB60F9211249F
:101960002F938F939F93EF93FF93E0912D05F09129
:101970002E058081E0913305F091340582FD1BC076
:101980009081809136058F5F8F7320913705821784
:1019900041F0E0913605F0E0E35EFA4F958F8093D9
:1019A0003605FF91EF919F918F912F910F900FBE70
:1019B0000F901F9018958081F4CFCF93DF931092F2
:1019C000200510921F0588EE93E0A0E0B0E0809320
:1019D000210590932205A0932305B093240584E16B
:1019E00091E090931E0580931D0585EC90E0909307
:1019F0002A058093290584EC90E090932C05809330
:101A00002B0580EC90E090932E0580932D0581ECC2
:101A100090E09093300580932F0582EC90E09093B6
:101A200032058093310586EC90E0909334058093E5
:101A30003305109236051092370510923805109232
:101A4000390580E391E09093F0058093EF058EE0F7
:101A50008093F10580E090E8ABEBB4E48093F2056D
:101A60009093F305A093F405B093F50584E19EE00F
:101A7000AEEFB4E48093F6059093F705A093F805D4
:101A8000B093F90586E291E09093E3058093E20537
:101A90008FE08093E40580E090E0A0E8BFE38093CE
:101AA000E7059093E805A093E905B093EA058093D4
:101AB000EB059093EC05A093ED05B093EE0587EF51
:101AC00094E09093BB058093BA054AE051E0FA0197
:101AD000649186EF90E0FC0124912223C1F030E074
:101AE000220F331FF901EF51FF4FA591B491F90176
:101AF000E952FF4FC591D4917FB7F8943C91262FBE
:101B0000209532233C933881232328837FBFFA0119
:101B100044914093BC05FC018491E82FF0E0EE0F66
:101B2000FF1FE551FF4F859194919093BE058093DF
:101B3000BD051092C7051092C9051092C8051092F4
:101B4000C6051092C5051092C4051092C3051092E7
:101B5000C2051092C1051092C0051092BF051092E7
:101B6000E0051092DF051092CB058CEB95E0909389
:101B7000D4058093D3051092D1051092D20510920E
:101B8000CA0589E08093CD0581E08093CE058093DE
:101B9000CF058093D0051092E105DF91CF91089594
:101BA000CF93DF93CDB7DEB761970FB6F894DEBF62
:101BB0000FBECDBF789484B5826084BD84B581604A
:101BC00084BD85B5826085BD85B5816085BD809108
:101BD0006E00816080936E00109281008091810080
:101BE0008260809381008091810081608093810078
:101BF000809180008160809380008091B10084603A
:101C00008093B1008091B00081608093B00080919A
:101C10007A00846080937A0080917A008260809359
:101C20007A0080917A00816080937A0080917A00B6
:101C3000806880937A001092C100E0912D05F091A8
:101C40002E0582E08083E0912905F0912A0510821B
:101C5000E0912B05F0912C058FEC808310923505D7
:101C6000E0913105F091320586E08083E0912F0507
:101C7000F0913005808180618083E0912F05F091A3
:101C80003005808188608083E0912F05F0913005D8
:101C9000808180688083E0912F05F09130058081FC
:101CA0008F7D808389EF94E00E94C3068091E105D7
:101CB00081119BC0E091D305F091D4051386158660
:101CC0001486128611861086178216821582148257
:101CD00013821092D1051092D20511E0BE01665F09
:101CE0007F4F8091D3059091D4050E94640488238E
:101CF00009F478C067E0CE010A960E9459029989DA
:101D00008913ECCF8091D1058F5F8093D1058A85AF
:101D1000883231F008F04CC0803111F08232F1F697
:101D20008091D2058F5F8093D2058091CA05811181
:101D300028C08091D3059091D4050E941603BE015E
:101D4000665F7F4F8091D3059091D4050E94F70282
:101D500040E064EB8091D3059091D4050E94C302CA
:101D60008091D3059091D4050E947002082F809134
:101D7000D3059091D4050E941603011102C010935F
:101D8000CA058A858031F9F0AE014F5F5F4FBE0111
:101D9000665F7F4F8AEC95E00E944E03882331F006
:101DA0008D818F33D9F058F48F31D1F080E00EC09F
:101DB0008B3309F4B5CF823409F090CFB1CF8F3592
:101DC00021F08F3799F78CE001C08BE09091CD0521
:101DD000981708F083CF8093CD0580CF8AE0F6CFA7
:101DE00089E0F4CF81E08093E1058AEB95E0909360
:101DF000E6058093E50586E0E4E0F1E0AEE0B5E0DD
:101E000001900D928A95E1F78BED9BE09093090587
:101E10008093080581E090E0909311058093100570
:101E200000E010E08DE195E00E94AA01892B11F0FD
:101E30000E94010701151105A9F30E94B60188232C
:101E400089F30E940000EECF662777270C947A0F63
:101E5000FC0188279927E89421912032E9F3293061
:101E600010F02E30C8F32B3241F02D3239F4689443
:101E700004C00E94720F820F911D219120532A30BD
:101E8000C0F31EF4909581959F4F08954AEF55E059
:101E90000E944B0F0895FA01A191B081009719F4A7
:101EA0001097E1F0CD01DC01CD010D90002011F47F
:101EB000C00113C0FB012191222319F02015D9F78D
:101EC000F3CFFB012191201519F41E92119606C043
:101ED0002223C1F70D900020A1F7D001FA01A193B0
:101EE000B08308957AE0979F902D879F802D910D64
:101EF00011240895B0E0A0E0E0E8FFE00C94231284
:101F00005C017B016115710519F0DB018D939C93D8
:101F100085010F5F1F4FF501D0818D2F90E00E944A
:101F2000CA106C01892BB9F5DD32B9F50F5F1F4F6F
:101F3000D5011196DC91C1E05801F1E0AF1AB1086A
:101F400043E050E060E770E0C5010E94D310892BA8
:101F500069F5680182E0C80ED11C45E050E06BE6EF
:101F600070E0C6010E94D310892B21F4680197E02C
:101F7000C90ED11CE114F10419F0D701CD92DC9205
:101F800060E070E080E89FEFC111FFC060E070E0AA
:101F900080E89FE7FAC05801BBCFDB3229F4850106
:101FA0000E5F1F4FF501D181C0E0C6CF43E050E086
:101FB00068E670E0C5010E94D310892BE9F0F801B2
:101FC00010E000E020E030E0A9015F01B0ED8B2ED1
:101FD0008D0E89E08815C8F19C2E689491F88C2F9D
:101FE0008870C2FF16C0811102C00F5F1F4F31966B
:101FF000D501DC91C92DE9CFE114F10429F00E5F80
:102000001F4FF7011183008360E070E080EC9FE7D1
:10201000BCC0882311F001501109A5E0B0E00E9476
:1020200012129B01AC01220F331F441F551F280DB4
:10203000311D411D511D283999E93907490799E199
:102040005907A8F2C6609C2ED2CFAEEF8A1206C006
:10205000C3FD3CC09C2E689493F8C9CFDF7DD53476
:10206000A9F580818D3239F4C061DF01129681813A
:1020700062E070E006C0DF018B32C1F3119661E0CF
:1020800070E080535D01A61AB70A8A30F8F4E0E8E0
:10209000CE16ECE0DE065CF4B601660F771F660F25
:1020A000771FC60ED71ECC0CDD1CC80ED11C5D01DF
:1020B000FFEFAF1ABF0A8C9180538A30A8F1C4FF9A
:1020C00003C0D194C194D1080C0D1D1DC1FF09C0DE
:1020D000E114F10431F081E0A81AB108D701AD9202
:1020E000BC92CA01B9010E94F010C370C33009F458
:1020F00090584B015C0120E030E0A9010E94EB10F8
:10210000882309F440C0CFE9D0E017FF05C011953E
:1021100001951109C7E8D0E06E01B8E1CB1AD108EA
:1021200080E2E82EF12C0FC0D501B1CFFE01259140
:102130003591459154910E191F09C501B4010E94B2
:1021400051114B015C01D501C4010E151F0574F737
:102150002497F594E794CC16DD06A9F78A2F880F0B
:102160008B2F881F8F3F49F020E030E0A901C50187
:10217000B4010E94EB10811106C082E290E09093BE
:10218000FD058093FC05C501B401CDB7DEB7ECE0D9
:102190000C943F1291110C94BE11803219F08950A9
:1021A0008550C8F70895FB01DC014150504088F08C
:1021B0008D9181341CF08B350CF4805E6591613417
:1021C0001CF06B350CF4605E861B611171F3990B8A
:1021D0000895881BFCCF0E942D1108F481E008951A
:1021E000E89409C097FB3EF49095809570956195B1
:1021F0007F4F8F4F9F4F9923A9F0F92F96E9BB2767
:102200009395F695879577956795B795F111F8CFE2
:10221000FAF4BB0F11F460FF1BC06F5F7F4F8F4F4D
:102220009F4F16C0882311F096E911C0772321F043
:102230009EE8872F762F05C0662371F096E8862FDB
:1022400070E060E02AF09A95660F771F881FDAF732
:10225000880F9695879597F90895990F0008550F5F
:10226000AA0BE0E8FEEF16161706E807F907C0F01C
:1022700012161306E407F50798F0621B730B840B24
:10228000950B39F40A2661F0232B242B252B21F4FE
:1022900008950A2609F4A140A6958FEF811D811D9E
:1022A00008950E9464110C94D8110E94CA1138F04C
:1022B0000E94D11120F0952311F00C94C1110C94BF
:1022C000C71111240C940C120E94E91170F3959F10
:1022D000C1F3950F50E0551F629FF001729FBB271D
:1022E000F00DB11D639FAA27F00DB11DAA1F649FB9
:1022F0006627B00DA11D661F829F2227B00DA11D6C
:10230000621F739FB00DA11D621F839FA00D611DF1
:10231000221F749F3327A00D611D231F849F600D12
:10232000211D822F762F6A2F11249F5750409AF03B
:10233000F1F088234AF0EE0FFF1FBB1F661F771FC7
:10234000881F91505040A9F79E3F510580F00C9492
:10235000C1110C940C125F3FE4F3983ED4F38695C0
:1023600077956795B795F795E7959F5FC1F7FE2B32
:10237000880F911D9695879597F908959927882735
:10238000089597F99F6780E870E060E008959FEFF7
:1023900080EC089500240A941616170618060906FC
:1023A000089500240A9412161306140605060895CB
:1023B000092E0394000C11F4882352F0BB0F40F453
:1023C000BF2B11F460FF04C06F5F7F4F8F4F9F4F93
:1023D000089557FD9058440F551F59F05F3F71F015
:1023E0004795880F97FB991F61F09F3F79F087957C
:1023F0000895121613061406551FF2CF4695F1DF05
:1024000008C0161617061806991FF1CF8695710594
:10241000610508940895E894BB2766277727CB01C8
:1024200097F908950E945412A59F900DB49F900DA6
:10243000A49F800D911D112408952F923F924F92D9
:102440005F926F927F928F929F92AF92BF92CF9244
:10245000DF92EF92FF920F931F93CF93DF93CDB74D
:10246000DEB7CA1BDB0B0FB6F894DEBF0FBECDBFC5
:1024700009942A88398848885F846E847D848C8496
:102480009B84AA84B984C884DF80EE80FD800C819F
:102490001B81AA81B981CE0FD11D0FB6F894DEBF82
:1024A0000FBECDBFED010895A29FB001B39FC00143
:1024B000A39F700D811D1124911DB29F700D811D70
:1024C0001124911D089597FB072E16F4009407D050
:1024D00077FD09D00E94771207FC05D03EF4909555
:1024E00081959F4F0895709561957F4F0895AA1B20
:1024F000BB1B51E107C0AA1FBB1FA617B70710F0EF
:10250000A61BB70B881F991F5A95A9F78095909520
:10251000BC01CD010895EE0FFF1F0590F491E02D51
:1025200009945058BB27AA270E94A9120C94D811CD
:102530000E94CA1138F00E94D11120F039F49F3F57
:1025400019F426F40C94C7110EF4E095E7FB0C94F3
:10255000C111E92F0E94E91158F3BA1762077307F6
:102560008407950720F079F4A6F50C940B120EF46D
:10257000E0950B2EBA2FA02D0B01B90190010C0193
:10258000CA01A0011124FF27591B99F0593F50F4AB
:10259000503E68F11A16F040A22F232F342F442703
:1025A000585FF3CF469537952795A795F0405395FB
:1025B000C9F77EF41F16BA0B620B730B840BBAF0CB
:1025C0009150A1F0FF0FBB1F661F771F881FC2F736
:1025D0000EC0BA0F621F731F841F48F4879577954A
:1025E0006795B795F7959E3F08F0B0CF9395880F04
:1025F00008F09927EE0F9795879508950E9412137A
:102600000C94D8110E94D11158F00E94CA1140F0C8
:1026100029F45F3F29F00C94C11151110C940C1254
:102620000C94C7110E94E91168F39923B1F3552363
:1026300091F3951B550BBB27AA27621773078407D5
:1026400038F09F5F5F4F220F331F441FAA1FA9F36B
:1026500035D00E2E3AF0E0E832D091505040E69559
:10266000001CCAF72BD0FE2F29D0660F771F881FBA
:10267000BB1F261737074807AB07B0E809F0BB0BAD
:10268000802DBF01FF2793585F4F3AF09E3F5105C1
:1026900078F00C94C1110C940C125F3FE4F3983E57
:1026A000D4F3869577956795B795F7959F5FC9F7AA
:1026B000880F911D9695879597F90895E1E0660F2B
:1026C000771F881FBB1F621773078407BA0720F0A4
:1026D000621B730B840BBA0BEE1F88F7E09508950D
:1026E0000E942D1108F48FEF0895FB01DC0102C058
:1026F00001900D9241505040D8F70895FB01DC0144
:102700008D91019080190110D9F3990B0895FB0167
:10271000DC0101900D920020E1F70895AEE0B0E0F9
:10272000E4E9F3E10C942B120D891E8986E08C8379
:102730001A8309838FEF9FE79E838D83AE01475EE7
:102740005F4F6F89788DCE0101960E94B1132F8162
:102750003885020F131FF80110822E96E4E00C94C6
:102760004712ABE0B0E0E7EBF3E10C941D127C0103
:102770003B018A01FC0117821682838181FFC8C157
:10278000CE0101965C01F7019381F30193FD8591E0
:1027900093FF81913F01882309F453C1853239F4B5
:1027A00093FD859193FF81913F01853229F4B70113
:1027B00090E00E94A115E7CF912C212C312CFFE154
:1027C000F31538F08B3211F190F4803209F1833235
:1027D00029F137FC3CC020ED280F2A3050F536FE99
:1027E00020C08AE0989E200D1124922E06C08D32C2
:1027F00091F0803371F7689430F8F30193FD85917F
:1028000093FF81913F018111DACF21C0689431F8A3
:10281000689432F8F2CF689433F8EFCF689434F8C4
:10282000ECCFEAE02E9E200D1124222E689435F87C
:10283000E4CF8E3229F436FC04C1689436F8DDCF3B
:102840008C3619F4689437F8D8CF8836B1F2982FBF
:102850009F7D95549330E0F08336A1F18337C1F129
:10286000833509F063C02801F2E04F0E511CF801D6
:10287000C080D180692D70E036FC02C06FEF7FEF21
:10288000C6010E948B154C01689437F882010AC07A
:102890000C5F1F4FFFE3F98388248394912C65011B
:1028A000E89437F833FE2DC0522C8114910471F551
:1028B000552009F468CFB70180E290E00E94A1158D
:1028C0005A94F6CFF801808189830E5F1F4FE4CFC1
:1028D0002801F2E04F0E511CF801C080D180692D13
:1028E00070E036FC02C06FEF7FEFC6010E949615C4
:1028F0004C018201D5CFB70180E290E00E94A11582
:102900002A942814190409F0B0F7CECFF60137FC49
:10291000859137FE81916F01B70190E00E94A1156A
:1029200051105A94F1E08F1A9108BFCF843619F0F4
:10293000893609F077C0F80137FE6BC0608171817C
:10294000828193810C5F1F4FF32DFF763F2E97FFFF
:1029500009C090958095709561957F4F8F4F9F4FDF
:10296000689437F82AE030E0A5010E94D115C82EFE
:10297000CA188C2C432C36FE0CC0E89440F8C914BD
:1029800040F434FE05C032FC03C0F32DFE7E4F2E12
:10299000892C44FE95C0FE01EC0DF11D8081803331
:1029A00009F087C0242D297E422E842D8870582E50
:1029B00043FC95C040FE8FC09C2C821418F42C0C54
:1029C000922C981844FE91C0B70180E390E00E94D9
:1029D000A11542FE09C088E790E041FE02C088E5EB
:1029E00090E0B7010E94A115C91408F48AC0CA94E6
:1029F000D12C9FEFC91AD90ACA0CDB1CF6018291AF
:102A00006F01B70190E00E94A115AC14BD04B1F7AD
:102A10004FCF60817181072E000C880B990B0E5FE0
:102A20001F4F92CFD32CE894D4F82AE030E08537BA
:102A300039F1232D297FD22E8F3601F148F48835C4
:102A4000A9F0F701868197812B96E2E10C94391267
:102A5000803749F08837A9F7D4FE02C06894D2F8CD
:102A600020E130E00DC06894D4F8F6CF34FE03C006
:102A7000822F8660D82E20E132E002C028E030E0CC
:102A8000F801D7FE0FC060817181828193810C5F54
:102A90001F4FA5010E94D115C82ECA183D2CE894DD
:102AA00037F867CF6081718190E080E00E5F1F4F43
:102AB000F0CF42FC02C0839478CF8394839475CF87
:102AC000842D867809F471CFF6CFB70180E290E0CB
:102AD0000E94A11583948214C0F3512C73CF522C01
:102AE0005818821408F46ECFF8CF842D867809F434
:102AF0007BCF8BE241FE80E247FC8DE2B70190E0A4
:102B000071CFB70180E390E00E94A1159A946CCF39
:102B10008FEF9FEF99CFFC0105906150704001103D
:102B2000D8F7809590958E0F9F1F0895FC016150F6
:102B3000704001900110D8F7809590958E0F9F1FDF
:102B400008950F931F93CF93DF93182F092FEB0155
:102B50008B8181FD09C01FEF0FEF812F902FDF9137
:102B6000CF911F910F91089582FF14C02E813F8154
:102B70008C819D81281739073CF4E881F981CF01C8
:102B800001969983888310838E819F8101969F830C
:102B90008E83E3CFE885F985812F0995892BA1F3F1
:102BA000DACFFA01AA27283051F1203181F1E894D7
:102BB0006F936E7F6E5F7F4F8F4F9F4FAF4FB1E030
:102BC0003ED0B4E03CD0670F781F891F9A1FA11D2B
:102BD000680F791F8A1F911DA11D6A0F711D811D2C
:102BE000911DA11D20D009F468943F912AE0269FF1
:102BF00011243019305D3193DEF6CF010895462F50
:102C00004770405D4193B3E00FD0C9F7F6CF462F30
:102C10004F70405D4A3318F0495D31FD4052419399
:102C200002D0A9F7EACFB4E0A69597958795779556
:102C30006795BA95C9F700976105710508959B01DD
:102C4000AC010A2E06945795479537952795BA9566
:102C5000C9F7620F731F841F951FA01D0895F89474
:022C6000FFCFA4
:102C62000000803F0805000006005E00BC007701FE
:102C720000000000EC014C0179013902AA0188012F
:102C82009C010000000062040906630400000000C9
:102C92006204DF03D306DA03227068223A20252E6B
:102CA20036662C002F6572723A20546F6F206D6168
:102CB2006E792063686172616374657273207265F4
:102CC2006365697665642E204D6178696D756D2046
:102CD200636F6D6D616E64206D7573742062652023
:102CE200256420636861726163746572730D0A0002
:102CF2002D3E2054686520636F6D6D616E64207295
:102D0200656365697665643A20222573220A002F7D
:102D12006572723A20496E76616C696420636F6DE8
:102D22006D616E6400666C757368006563686F0040
:102D32002F6563686F20007068002F706820252E51
:102D420034660063616C696272617465002F65723A
:102D5200723A2070682063616C69627261746520E6
:102D62002D20756E6B6E6F776E20636F6D6D616E69
:102D720064007374617274002F70682063616C69FF
:102D820062726174652073746172740D0A002F702F
:102D9200683A2063616C6962726174696F6E206E59
:102DA20065757472616C2066726F6D20252E3466B3
:102DB20020746F20252E34660D0A002F70683A2089
:102DC20063616C6962726174696F6E2061636964C8
:102DD2002066726F6D20252E346620746F20252E9A
:102DE20034660D0A002F70683A2063616C69627262
:102DF2006174696F6E2076616C75657320756E63A0
:102E020068616E6765640D0A002F70682063616CEB
:102E120069627261746520656E640D0A006765748B
:102E2200002F70682063616C6962726174696F6EF1
:102E3200206461746120252E346620252E34660DAF
:102E42000A00736574002F6572723A2070682063FD
:102E5200616C6962726174696F6E20736574206D52
:102E6200697373696E67206E65757472616C207622
:102E72006F6C74616765002F6572723A207068200A
:102E820063616C6962726174696F6E20736574202C
:102E92006D697373696E67206163696420766F6C14
:102EA20074616765002F70682063616C696272618A
:102EB20074696F6E207365742073756363657373D1
:102EC200006563002F656320252E34660D0A002FEE
:102ED2006572723A2065632063616C696272617423
:102EE20065202D206D757374207370656369667932
:102EF200206D6F6465002F65632063616C69627287
:102F02006174652073746172740D0A002F65633AEF
:102F12002063616C6962726174696F6E206C6F7795
:102F22002066726F6D20252E346620746F20252E48
:102F320034660D0A002F65633A2063616C69627220
:102F42006174696F6E20686967682066726F6D20B0
:102F5200252E346620746F20252E34660D0A002F2C
:102F620065633A2063616C6962726174696F6E2095
:102F720076616C75657320756E6368616E676564F2
:102F82000D0A002F65632063616C69627261746966
:102F92006F6E20656E640D0A002F65632063616C9D
:102FA2006962726174696F6E206461746120252E9A
:102FB200346620252E34660D0A002F6572723A207F
:102FC20065632063616C6962726174696F6E2073FC
:102FD2006574206D697373696E672074776F2070F2
:102FE2006172616D6574657273002F6572723A2049
:102FF20065632063616C6962726174696F6E2073CC
:103002006574206D697373696E67206F6E652070D9
:103012006172616D65746572002F65632063616C16
:103022006962726174696F6E20736574207375636F
:1030320063657373002F6572723A20496E76616C14
:10304200696420636F6D6D616E640D0A00200A0D64
:10305200002F68656C70005F002D3E20496E697418
:0830620069616C697A65640084
:00000001FF
